:020000040800F2
:1000000030AB00204D010008053A00081D02000831
:10001000013A00082B09000869850008000000006B
:10002000000000000000000000000000E56700087C
:10003000FD090008000000009F0100089569000804
:1000400067010008670100083D6B000867010008B0
:100050006701000867010008FF0900086701000840
:1000600067010008670100086701000867010008D0
:1000700067010008670100086701000831090008EE
:1000800067010008670100086701000867010008B0
:100090000000000067010008670100086701000810
:1000A0006701000867010008670100086701000890
:1000B0004D6B000867010008670100086701000830
:1000C0006701000867010008670100086701000870
:1000D00067010008518000086701000867010008F7
:1000E000670100086701000859400008670100081F
:1000F0006701000800000000000000006701000820
:100100006701000867010008995A000867010008A4
:10011000670100086701000867010008670100081F
:10012000670100086701000867010008670100080F
:100130006701000867010008DFF80CD000F0EEFA54
:10014000004800474D9A000830AB00200648804721
:1001500006480047FEE7FEE7FEE7FEE7FEE7FEE7AC
:10016000FEE7FEE7FEE7FEE7396B0008390100080D
:10017000EFF3108072B6704780F310887047344AEE
:100180001368012B04D04FF001031360314A106053
:10019000314A116031484FF0805101607047EFF3F0
:1001A000108272B62A48016891B14FF000010160D7
:1001B0002848016829B1EFF3098121E9F00F0068AF
:1001C0000160254909680968B1E8F00F81F30988E1
:1001D00082F310884EF0040E70471F4908601D49D5
:1001E0004FF0000008601A494FF0010008601C48F9
:1001F0001C49D0F8002041EA0201016017484FF085
:100200008051016018480068006880F3088861B672
:1002100062B6BFF34F8FBFF36F8F70471EF0040FAE
:100220000CBFEFF30880EFF3098020E9F00F40F8EE
:1002300004ED1EF0040F0CBF80F3088880F30988DA
:1002400000B509F065FA5DF804EB4EF0040E704756
:10025000940000208C0000209000002004ED00E0BD
:1002600020ED00E00000FFFF08ED00E02DE9F05F69
:100270000546002092469B46884606468146402415
:100280001BE0284641464746224600F07FF8534689
:100290005A46C01A914110D311461846224600F022
:1002A00066F82D1A67EB01084F462246012000210F
:1002B00000F05DF817EB00094E41201EA4F1010487
:1002C000DFDC484631462A464346BDE8F09F40EA17
:1002D00001039B0703D009E008C9121F08C0042AC4
:1002E000FAD203E011F8013B00F8013B521EF9D2AB
:1002F0007047D2B201E000F8012B491EFBD27047D3
:100300000022F6E710B513460A4604461946FFF7E1
:10031000F0FF204610BD421C10F8011B0029FBD144
:10032000801A704730B505460020034600E05B1C8C
:10033000934205D2EC5CC85C201A01D1002CF6D1A6
:1003400030BD30B50B46014600202022012409E0D3
:1003500021FA02F59D4205D303FA02F5491B04FA7E
:1003600002F52844151EA2F10102F1DC30BD202A5D
:1003700004DB203A00FA02F1002070479140C2F1FC
:10038000200320FA03F3194390407047202A04DB2E
:10039000203A21FA02F00021704721FA02F3D040FE
:1003A000C2F1200291400843194670472DE9FE4FE3
:1003B000804681EA0300C00F0C46009021F0004106
:1003C00023F00045B8EB0200A94105D24046214682
:1003D00090461C460B46024623F00040104347D08F
:1003E000270DC7F30A00C3F30A510290401A019087
:1003F00040286BDAC3F3130040F4801B0098924648
:1004000020B10023D2EB030A63EB0B0B0198594692
:10041000C0F140025046FFF7AAFF06460D4650467F
:100420005946019A00F08CF910EB08006141002454
:1004300087EA115284EAE7731A4340D0009A62B304
:10044000019A012A4FEA075215DC001B61EB0201F9
:100450004FF0004202EA0752CDE90042001C41F58C
:10046000801132462B4600F08CF903B0BDE8F08FC6
:1004700040462146F9E7001B61EB0201001C41F5F3
:10048000801300185B412018A2F5001747EB030109
:1004900040EAD570B6196D4111E06D084FEA360695
:1004A00045EAC0754FEA0752001B61EB0201001CD0
:1004B00041F5801149084FEA300000195141324698
:1004C0002B4603B0BDE8F04F00F04CB90098012274
:1004D00040000023D0EB020263EBE073009821465A
:1004E0004FEAE074B8EB000061EB0401E9E783F048
:1004F00000435BE781F0004158E72DE9FE4F81EAB8
:10050000030404F0004421F0004100944FF0000B7C
:1005100023F0004350EA01045ED052EA03045BD0AA
:10052000C3F30A54C1F30A552C44A4F2F3340194E2
:10053000A0FB0254C1F3130141F48011C3F3130370
:1005400043F4801301FB024400FB034E840A970A24
:1005500044EA815447EA8357A4FB076802958D0A51
:1005600005FB07854FEA932C04FB0C542705029DDD
:100570004FEA065847EA1637B5EB08056EEB070C4D
:10058000870E920E47EA811742EA8312A7FB020107
:10059000B6EB0B0164EB00042B0D43EA0C335E1841
:1005A00044EB1C50DA465146E7FB0201C5F3130445
:1005B0004FEA0B3343EA14534FEA0432019C43EAF7
:1005C0000603A4F10C040294009CCDE900B400F0F1
:1005D000D8F803B0BDE8F08F00200146F9E72DE917
:1005E000F04D81EA030404F0004B21F0004514466D
:1005F0004FF0000A23F0004150EA050220D054EAEF
:1006000001021DD0C5F30A570246C5F31303C1F317
:100610001300C1F30A5640F4801543F48013A7EB8E
:100620000608101BD64608F2FD3873EB050002D30E
:1006300008F1010801E092185B41B8F1000F03DAFC
:1006400000200146BDE8F08D00204FF480110646E1
:1006500084460EE0171B73EB050705D3121B63EBF3
:10066000050306434CEA010C49084FEA3000921892
:100670005B4150EA0107EDD152EA030012D082EA51
:10068000040083EA0501084305D0101BAB4106D2E4
:100690000122002306E000224FF0004302E06FF049
:1006A000010253101AEB06004CEB085110EB0A0044
:1006B00041EB0B01BDE8F04D00F054B8C1F30A5214
:1006C000C1F3130140F2FF3341F480119A4202DA80
:1006D00000200146704740F233439A42A2F233426F
:1006E00002DC5242FFF752BEFFF741BE30B5041E96
:1006F00071F1000404DB4FF00044404264EB01015F
:10070000141E73F1000405DB1C464FF000435242F7
:1007100063EB0403994208BF904230BD064C074D7D
:1007200006E0E06840F0010394E8070098471034C1
:10073000AC42F6D3FFF704FD98B30008B8B3000845
:10074000202A06DBCB17203A41FA02F043EAE07395
:1007500006E041FA02F3D040C2F120029140084382
:100760001946704710B5141E73F1000408DA401CD6
:1007700041F1000192185B411A4301D120F00100C0
:1007800010BD2DE9F04D92469B4611B1B1FA81F2B0
:1007900002E0B0FA80F220329046FFF7E8FD04460E
:1007A0000F4640EA0A0041EA0B0153465A46084305
:1007B00013D0114653EA010019D0C8F14002504647
:1007C000FFF7E4FD05460E46504659464246FFF700
:1007D000CEFD084305D0012004E020463946BDE89F
:1007E000F08D0020054346EAE0762C4337430A9813
:1007F0006305E40AA0EB08000022FD0A44EA47541E
:100800000A3002D500200146E9E7010510196941C7
:10081000DDE9084500196941BDE8F04DA2E710B5D2
:10082000044634B1012C12D0022C1DD0032C37D138
:1008300028E0002202214FF0904000F0A7FC0022A7
:100840004FF480714FF0904000F0A0FC29E00022AE
:1008500002214FF0904000F099FC012211024FF06C
:10086000904000F093FC1CE0012202214FF09040E8
:1008700000F08CFC00224FF480714FF0904000F0AB
:1008800085FC0EE0012202214FF0904000F07EFC3A
:1008900000224FF480714FF0904000F077FC00E0B0
:1008A00000BF00BF002010BD014609B90F2000E0C5
:1008B000162070470220704700B585B014216846A5
:1008C000FFF71EFD012002F0DAFE022002F0D7FE43
:1008D0004FF48070009001200190002002900320CE
:1008E000039069464FF0904000F086FB0220009094
:1008F00069464FF0904000F07FFB00224FF480717A
:100900004FF0904000F042FC002202214FF0904056
:1009100000F03CFC002005B000BD01207047002025
:10092000704710B502F0C4FF10BD00BFFEE7000025
:1009300010B5024800F064F910BD00002802002044
:10094000124B02689A420BD2426C9208104B03EB96
:10095000820282640278083A1423B2FBF3F10CE0BD
:10096000426C92080A4B1C3303EB820282640278C9
:10097000083A1423B2FBF3F2D11D054A8032C26457
:1009800001F01F0301229A400265704708040240EB
:1009900000080240027902F07F014A1E064B03EB79
:1009A00082024265044A403282654A1E02F0030315
:1009B00001229A40C26570470009024030B5D0E973
:1009C00013546C60446D14B1D0E916546C6090F807
:1009D000444004F01C050124AC40056C6C600468C4
:1009E00063608468102C04D10468A2600468E1602C
:1009F00003E00468A1600468E26030BD704710B590
:100A0000012000F0EBFA10BD72B600BFFEE7000057
:100A100000BF08488068014603E000BF05488068C1
:100A2000014600BF034880688842F6D1C1F1FF301B
:100A30007047000000280040014609B901207047B6
:100A400091F82500022808D00420C86300BF0020C8
:100A500081F8240000BF0120F1E70868006820F059
:100A60000E000A681060886C006820F480708A6C40
:100A700010600868006820F001000A68106091F8B2
:100A8000440000F01C02012090400A6C5060D1E943
:100A900013205060486D40B1486D006820F48070AC
:100AA0004A6D1060D1E916205060012081F82500C0
:100AB00000BF002081F8240000BF00BFBFE770B571
:100AC0000446002594F82500022803D00420E063A2
:100AD000012534E02068006820F00E0021680860DD
:100AE0002068006820F0010021680860A06C0068A0
:100AF00020F48070A16C086094F8440000F01C01A0
:100B000001208840216C4860D4E913104860606D72
:100B100040B1606D006820F48070616D0860D4E9B8
:100B200016104860012084F8250000BF002084F8DA
:100B3000240000BFA06B10B12046A16B8847284657
:100B400070BD000010B504460CB9012010BD20682E
:100B5000006820F001002168086027492068884269
:100B60000BD226492068401A1421B0FBF1F0800016
:100B700060642248083820640AE01F492068401A4F
:100B80001421B0FBF1F0800060641B480838206439
:100B900000202168086094F8440000F01C01012046
:100BA0008840216C48602046FFF7CAFE0020A16CF7
:100BB0000860D4E913104860606858B16068042880
:100BC00008D82046FFF7E6FE0020616D0860D4E9F2
:100BD0001610486000206065A065E065E062206353
:100BE0006063A063E06384F8250000BF84F82400FC
:100BF00000BF00BFAAE7000008040240080002404E
:100C000070B50446206C05682068066894F84400B6
:100C100000F01C01042088402840E0B106F00400E8
:100C2000C8B12068006800F0200028B9206800687A
:100C300020F004002168086094F8440000F01C01D2
:100C400004208840216C4860206B002865D0204635
:100C5000216B884761E094F8440000F01C010220F9
:100C60008840284088B306F0020070B3206800680E
:100C700000F0200040B92068006820F00A002168D8
:100C80000860012084F8250024492068884208D99A
:100C900094F8440000F01C010220884020490860BC
:100CA00008E094F8440000F01C01022088401B4931
:100CB0008039486000BF002084F8240000BFE06A4B
:100CC00058B32046E16A884727E0FFE794F84400DC
:100CD00000F01C01082088402840F0B106F0080010
:100CE000D8B12068006820F00E002168086094F8F0
:100CF000440000F01C0101208840216C4860012064
:100D0000E06384F8250000BF002084F8240000BFC1
:100D1000606B10B12046616B884770BD8000024057
:100D20000404024010B504460CB9012010BD33493B
:100D3000206888420BD232492068401A1421B0FB47
:100D4000F1F0800060642E48083820640AE02B49E6
:100D50002068401A1421B0FBF1F08000606427483D
:100D600008382064022084F825002068006847F6CF
:100D7000F071884321680860D4E9020108432169C1
:100D8000084361690843A1690843E1690843216A8E
:100D90000843216809680843216808602046FFF776
:100DA000CFFDA068B0F5804F01D1002060602079B0
:100DB00000F07F00A16C0860D4E9131048606068FF
:100DC00060B16068042809D82046FFF7E3FD0020E1
:100DD000616D0860D4E91610486003E0002060658A
:100DE000A065E0650020E063012084F8250000BFD5
:100DF000002084F8240000BF00BF97E708040240E9
:100E0000080002402DE9F04104460D4616461F46F3
:100E10004FF0000800BF94F82400012802D10220FE
:100E2000BDE8F081012084F8240000BF94F825007B
:100E300001283FD1022084F825000020E0632068CB
:100E4000006820F00100216808603B4632462946D0
:100E50002046FFF7B3FD206B30B12068006840F0FA
:100E60000E00216808600BE02068006820F0040094
:100E7000216808602068006840F00A002168086066
:100E8000A06C006800F4803028B1A06C006840F4C9
:100E90008070A16C0860606D28B1606D006840F4DE
:100EA0008070616D08602068006840F00100216872
:100EB000086008E08020E06300BF002084F8240080
:100EC00000BF4FF001084046AAE701B5009805F0C1
:100ED000ADFE08BDF0B502460B4600206EE00125D0
:100EE000854005EA0301002967D0374D860855F88B
:100EF000264085072E0F0725B5402C40B2F1904FB4
:100F000001D100250AE0314DAA4201D1012505E0B9
:100F10002F4DAA4201D1022500E007258607360F92
:100F2000B540A54223D12B4D2D688D43294E356008
:100F3000351D2D688D43361D3560264D803D2D684D
:100F40008D43244E803E3560351D2D688D43361D02
:100F5000356085072E0F072505FA06F41A4D860819
:100F600055F82650A543184E870846F827501568AF
:100F700047000326BE4035431560C60802F1200530
:100F800055F826504607F70E0F26BE40B543C70852
:100F900002F1200646F82750956847000326BE4018
:100FA000B5439560556801268640B5435560D568C0
:100FB00047000326BE40B543D560401C23FA00F528
:100FC000002D8CD1F0BD0000080001400004004855
:100FD00000080048800800587047000010B504461B
:100FE00004480068204020B1024804602046FFF712
:100FF000F3FF10BD0C08005870B503460A460021E7
:10100000ACE001268E40156805EA0604002C6ED07F
:10101000157905F00305012D04D0157905F00305B8
:10102000022D13D198684E000325B540A8434E0009
:10103000D568B54028439860586801258D40A8437D
:101040001579C5F300158D4028435860157905F0D2
:101050000305032D09D0D8684E000325B540A843E9
:101060004E009568B5402843D860157905F0030512
:10107000022D13D1CE0803F1200555F826004D07A7
:10108000EE0E0F25B540A8434E07F60E1569B54084
:101090002843CE0803F1200545F8260018684E00C5
:1010A0000325B540A843157905F003054E00B5406A
:1010B00028431860556805F44035002D4DD02A4D61
:1010C0008E0855F826008D072E0F0725B540A8433A
:1010D000B3F1904F01D100250BE0244DAB4201D17B
:1010E000012506E0224DAB4202D1022501E034E0A9
:1010F00007258E07360FB54028431B4D8E0845F84F
:1011000026001C4D2868A043556805F4801505B1DC
:101110002043184D28602D1D2868A043556805F40C
:10112000001505B12043134D2D1D2860114D80354C
:101130002868A043556805F4803505B120430D4D5E
:10114000803528602D1D2868A043556805F40035BA
:1011500005B12043074D84352860491C1568CD40F2
:10116000002D7FF44EAF70BD080001400004004820
:10117000000800480008005810B5426921EA02033F
:1011800002EA010443EA0443836110BD0AB18161AC
:1011900000E081627047000010B500240348007829
:1011A00010B105F085FD0446204610BD000000206A
:1011B00003480068034909780844014908607047FA
:1011C0009C000020A400002010B50024032000F0A3
:1011D00089F800F0E7FA064908600F2000F00AF8E5
:1011E00008B1012401E000F008F8204610BD00001D
:1011F000A8000020014600207047704710B5014646
:101200000846002817DB00F01F0301229A400B4B11
:10121000440943F8242000BF00BF00BFBFF34F8F35
:1012200000BF00BF00BF00BF00BF00BFBFF36F8F94
:1012300000BF00BF00BF00BF10BD000080E100E0A4
:101240000146084600280DDB00BF00BF00F01F0369
:1012500001229A4043099B0003F1E023C3F80021D7
:1012600000BF00BF00BF70472DE9F05F80460D460C
:10127000164607F08DF9074639462A46334601F0EF
:101280000700C0F1070ABAF1040F02D94FF0040AAF
:1012900001E0C0F1070AD14600F1040ABAF1070FD4
:1012A00002D24FF0000A01E0A0F1030AD4464FF049
:1012B000010A0AFA09FAAAF1010A0AEA020A0AFA72
:1012C0000CFA4FF0010B0BFA0CFBABF1010B0BEA24
:1012D000030B4AEA0B042146404607F061F9BDE8DA
:1012E000F09F000000BF00F00702064B19684FF6A0
:1012F000FF031940044B0B4343EA0221014B1960E1
:1013000000BF70470CED00E00000FA0502480068DD
:1013100000F4C060704700000004005803480068F3
:1013200040F48070014908607047000000040058D4
:101330002DE9F041044600270026B046206800F45D
:101340008030B0F5803F5FD1FFF7E8FFFFF724FF63
:10135000054606E0FFF720FF401B022801D90326BF
:1013600006E07E48006800F48070B0F5807FF1D11F
:1013700000BF002E47D100BF7948006800F44070DC
:10138000616B88421AD07648006820F4407700BF2D
:101390004FF0B040D0F8900040F4803070490860C1
:1013A00000BF00BF4FF0B040D0F8900020F4803074
:1013B000086000BF4FF0B040C0F8907007F0020026
:1013C000022811D1FFF7E8FE054608E0FFF7E4FE2A
:1013D000401B41F28831884201D9032603E002F024
:1013E000DBF90128F2D100BF5EB9606B5C49096886
:1013F00021F4407101434FF0B042C2F8901000BF99
:1014000002E0B04600E0B046207800F0010010B1E4
:10141000606802F02FFA207800F00200022802D162
:10142000A06802F027FA207800F0200020280CD1D4
:1014300020694B490839096821F4406101434FF0A4
:10144000B042C2F8881000BF00BF208800F40070CE
:10145000B0F5007F02D1206A02F0FEF9208800F486
:101460008060B0F5806F02D1606A02F0F5F92088E3
:1014700000F40060B0F5006F02D1A06A02F0ECF950
:10148000207800F04000402802D1606902F0D0F9D5
:10149000207800F08000802802D1A06902F0C8F90D
:1014A000208800F48070B0F5807F02D1E06902F0FE
:1014B000BFF9207800F01000102815D1E068284905
:1014C0000839096821F4407101434FF0B042C2F875
:1014D000881000BFE068B0F5807F05D11046C06875
:1014E00040F080701146C860208800F40040B0F5DC
:1014F000004F13D1206B1A490839096821F0404187
:1015000001434FF0B042C2F8881000BF206B28B9E9
:101510001046C06840F080701146C860208800F412
:101520008040B0F5804F15D1E06A0D49083909684F
:1015300021F0405101434FF0B042C2F8881000BF83
:10154000E06AB0F1005F05D11046C06840F4803019
:101550001146C8604046BDE8F08100000004005814
:101560009000005870B504460E460CB9012070BDBD
:101570008848006800F00700B04217D2854800682C
:1015800020F00700304383490860FFF705FE054659
:1015900006E0FFF701FE401B022801D90320E6E721
:1015A0007C48006800F00700B042F2D1207800F0DB
:1015B000020002281DD1A0684FF0B041896821F0D7
:1015C000F00101434FF0B042916000BFFFF7E4FD2E
:1015D000054606E0FFF7E0FD401B022801D9032085
:1015E000C5E700BF4FF0B0408068C0F3004000285E
:1015F000F0D0207800F0400040281DD16069664995
:10160000096821F00F0141EA10114FF0B042C2F811
:10161000081100BFFFF7C0FD054606E0FFF7BCFD5F
:10162000401B022801D90320A1E700BF5A480068E7
:10163000C0F300400028F1D0207800F00400042816
:101640001DD1E0684FF0B041896821F4E0610143A9
:101650004FF0B042916000BFFFF79EFD054606E0E7
:10166000FFF79AFD401B022801D903207FE700BF46
:101670004FF0B0408068C0F340400028F0D02078A0
:1016800000F0080008281ED12169C8004FF0B041C1
:10169000896821F4605101434FF0B042916000BF6E
:1016A000FFF77AFD054606E0FFF776FD401B0228AE
:1016B00001D903205BE700BF4FF0B0408068C0F362
:1016C00080400028F0D0207800F0010098B36068D6
:1016D000022804D102F038F8A8B9012047E7606871
:1016E000032804D102F09DF868B901203FE7606843
:1016F00020B902F07CF830B9012038E702F02AF86E
:1017000008B9012033E760684FF0B041896821F0E3
:10171000030101434FF0B042916000BFFFF73CFD71
:10172000054609E0FFF738FD401B41F28831884249
:1017300002D903201BE705E001F0DEFF6168B0EB92
:10174000810FEFD11348006800F00700B04217D9AD
:101750001048006820F0070030430E490860FFF78A
:101760001BFD054606E0FFF717FD401B022801D9C7
:101770000320FCE60748006800F00700B042F2D101
:1017800000F010F80549086005480068FFF732FDD1
:10179000EDE600000040005808010058A8000020B5
:1017A000A000002010B500F02FF84FF0B04189687C
:1017B00001F0F0010909034A52F82110B0FBF1F0E1
:1017C00010BD000058B1000810B5FFF7EBFF4FF057
:1017D000B041896801F4E061090A024A12F8211057
:1017E000C84010BD98B1000810B5FFF7DBFF4FF0FF
:1017F000B041896801F46051C90A024A12F8211007
:10180000C84010BD98B100082DE9F0414FF0000824
:10181000002701F071FF044600BF4FF0B040C068E0
:1018200000F0030006461CB10C2C35D1012E33D13B
:1018300001F0D7FFB0B901F0D4FF012806D100BFF5
:101840004FF0B040006800F0F00005E000BF3848FD
:10185000006800F4706000BFC0F30320354951F800
:10186000200015E001F0BDFF012806D100BF4FF0B8
:10187000B040006800F0F00005E000BF2C480068B0
:1018800000F4706000BFC0F303102A4951F8200033
:1018900007468CB9B8460FE0042C02D1DFF89880D7
:1018A0000AE0082C08D101F049FF012802D1DFF835
:1018B000888001E0DFF8848001F01EFF0C2833D11E
:1018C00000BF4FF0B040C06800F003000646012E94
:1018D0000FD0022E02D0032E0AD101E0164D0AE0ED
:1018E00001F02CFF012801D1134D00E0134D02E05F
:1018F00000BF3D4600BF00BF00BF4FF0B040C06812
:10190000C0F3062068434FF0B041C96801F0700190
:10191000012202EB1111B0FBF1F14FF0B040C068B1
:1019200002EB5070B1FBF0F84046BDE8F0810000DA
:1019300094000058B8B100080024F4000048E80101
:101940002DE9F047044614B90120BDE8F08701F005
:10195000D3FE064600BF4FF0B040C06800F003075A
:1019600000BF207800F02000202872D11EB10C2E7C
:1019700060D1012F5ED1206A08B90120E5E74FF060
:10198000B040A16A006800F0080028B14FF0B040F4
:10199000006800F0F00004E0FB48006800F47060AC
:1019A000000981421CD9A06A02F012FB08B1012093
:1019B000CBE700BF4FF0B040006840F008004FF0A8
:1019C000B04108600846006820F0F000A16A0843B2
:1019D0004FF0B041086000BF606A01F00EFF1BE0ED
:1019E00000BF4FF0B040006840F008004FF0B04139
:1019F00008600846006820F0F000A16A08434FF034
:101A0000B041086000BF606A01F0F7FEA06A02F012
:101A1000DFFA08B1012098E7FFF7C4FEDB49086050
:101A2000DB480068FFF7E6FB8146B9F1000F45D0BF
:101A300048468AE7206A40B301F0CAFEFFF7ACFBD4
:101A4000054607E0FFF7A8FB401B022802D9032048
:101A50007BE733E001F0CBFE0028F3D000BF4FF06E
:101A6000B040006840F008004FF0B0410860084600
:101A7000006820F0F000A16A08434FF0B041086010
:101A800000BF606A01F0B9FE18E000BF4FF0B0403F
:101A9000006820F001004FF0B041086000BFFFF780
:101AA0007BFB054606E0FFF777FB401B022801D9C8
:101AB00003204AE701F09BFE0028F4D1207800F0D3
:101AC000010000285BD0082E03D00C2E05D1032F77
:101AD00003D16068B8BB012037E74FF0B040006821
:101AE00020F48010A16808434FF0B041086000BFA7
:101AF0006068B0F5803F02D101F017FE1CE060681D
:101B0000B0F5041F0CD100BF4FF0B040006840F4A6
:101B100000104FF0B041086000BF01F006FE0BE07E
:101B200000BF4FF0B040006820F480304FF0B0416B
:101B3000086000BF01F0F0FD00BF606880B1FFF7F2
:101B40002BFB054607E01AE0FFF726FB401B642845
:101B500001D90320F9E601F0F7FD0028F4D00EE0EA
:101B6000FFF71AFB054606E0FFF716FB401B64284B
:101B700001D90320E9E601F0E7FD0028F4D120783F
:101B800000F00200022845D1042E03D00C2E09D10A
:101B9000022F07D1206908B90120D6E6606901F05B
:101BA000DFFD37E02069E0B100BF4FF0B0400068D2
:101BB00040F480704FF0B041086000BFFFF7ECFACE
:101BC000054606E0FFF7E8FA401B022801D903208A
:101BD000BBE601F0BFFD0028F4D0606901F0C0FD54
:101BE00018E000BF4FF0B040006820F480704FF064
:101BF000B041086000BFFFF7CFFA054606E0FFF7E7
:101C0000CBFA401B022801D903209EE601F0A2FD79
:101C10000028F4D1207800F0080008285CD1A069E1
:101C2000E0B35948D0F8008008F01001E06988421C
:101C300026D008F00200022804D108F0010008B9FB
:101C4000012082E608F0010080B101F0ADFDFFF750
:101C5000A3FA054606E0FFF79FFA401B112801D9B9
:101C6000032072E601F0ACFD0028F4D1464800687C
:101C700020F01000E16908434FF0B041C1F8940032
:101C800000BF4148006840F001004FF0B041C1F88A
:101C9000940000BFFFF780FA054607E00BE0FFF76E
:101CA0007BFA401B112801D903204EE601F088FD84
:101CB0000028F4D010E001F077FDFFF76DFA05463B
:101CC00006E0FFF769FA401B112801D903203CE622
:101CD00001F076FD0028F4D1207800F004000428FB
:101CE00067D101F0DBFC80B9FFF718FBFFF754FA6E
:101CF000054606E0FFF750FA401B022801D90320F1
:101D000023E601F0CBFC0028F4D0E068D8B3E0680B
:101D1000852802D0E068052808D11B48001F00680C
:101D200040F004004FF0B041C1F89000FFF734FAE2
:101D300005461548001F006840F001004FF0B04113
:101D4000C1F8900008E0FFF727FA401B41F2883104
:101D5000884201D90320F8E501F016FD0028F2D0F1
:101D6000E068812802D0E068852823D1FFF714FAC3
:101D700005460548001F006840F080004FF0B04164
:101D8000C1F890000FE031E094000058A800002056
:101D9000A0000020FFF700FA401B41F28831884282
:101DA00001D90320D1E56D48006800F400600028E7
:101DB000F0D04FE0FFF7F0F905466848006820F0E2
:101DC00080004FF0B041C1F8900008E0FFF7E4F95F
:101DD000401B41F28831884201D90320B5E55F48B4
:101DE000006800F400600028F0D133E0FFF7D4F978
:101DF00005465A48006820F080004FF0B041C1F815
:101E0000900008E0FFF7C8F9401B41F28831884292
:101E100001D9032099E55148006800F400600028CA
:101E2000F0D1FFF7B9F905464C48006820F00100F1
:101E30004FF0B041C1F8900008E0FFF7ADF9401B4A
:101E400041F28831884201D903207EE501F09CFCF3
:101E50000028F2D1E06AD0B30C2E5FD0E06A0228ED
:101E600042D101F0D5FCFFF797F9054606E0FFF7F0
:101E700093F9401B0A2801D9032066E501F0D1FC43
:101E80000028F4D1D4E90C010843A16B40EA0120F9
:101E9000E16B0843216C0843616C08434FF0B0418B
:101EA000C9682F4A114008434FF0B041C86000BFD5
:101EB0000846006840F08070086000BF0846C068AF
:101EC00040F08050C860FFF767F9054607E043E03F
:101ED000FFF762F9401B0A2801D9032035E501F01C
:101EE000A0FC0028F4D037E001F092FCFFF754F991
:101EF000054606E0FFF750F9401B0A2801D90320E8
:101F000023E501F08EFC0028F4D14FF0B040C0680A
:101F1000144908404FF0B041C8601DE0E06A012854
:101F200000D112E54FF0B040C76807F00301206B05
:101F300081420FD107F07001606B81420AD107F432
:101F4000FE41A06BB1EB002F04D107F06041606C43
:101F5000814201D00120F8E40020F6E4900000580E
:101F60008C80C111FCFFFEEE704700000346024A60
:101F700002EB81021068704700B1004010B50346C3
:101F8000024800EB8100026010BD000000B100407B
:101F9000014600BF91F82C00012801D102207047B2
:101FA000012081F82C0000BF022081F82D0000BF25
:101FB000CA200E4A10605320106000BF0B480C3836
:101FC000006840F02000094A0C3A106000BFFF2072
:101FD000064A106000BF012081F82D0000BF0020DC
:101FE00081F82C0000BF00BFD9E700002428004082
:101FF00070B5054604F0BCFD0446601C04F0DAFD33
:1020000070BD000010B504460748006800F04000AD
:1020100030B140200449083108602046FFF7E8FF4E
:10202000012084F82D0010BD54280040014600BF57
:1020300091F82C00012801D102207047012081F87D
:102040002C0000BF022081F82D0000BFCA20114AD9
:1020500010605320106000BF0E480C38006840F03C
:1020600080000C4A0C3A10600B48006840F4802055
:10207000094A106000BFFF20064A106000BF01201F
:1020800081F82D0000BF002081F82C0000BF00BFA8
:10209000D3E70000242800408008005810B504460B
:1020A00006F038F910BD000070B504460E4800680F
:1020B000216B00EA010505F0010030B101200A4959
:1020C000083108602046FFF7E9FF05F0020030B153
:1020D00002200549083108602046FFF745FF01202E
:1020E00084F82D0070BD000054280040024600BF57
:1020F00092F82C00012801D102207047012082F8BB
:102100002C0000BF022082F82D0000BFCA20244B03
:1021100018605320186000BFB1F5807F18D12048A7
:102120000C38006820F488501D4B0C3B18601C488C
:102130002030006820F00040194B20331860106BED
:1021400020F0010010630120154B3833186017E0B0
:1021500013480C38006820F40850114B0C3B1860F1
:102160000F482830006820F000400D4B28331860DD
:10217000106B20F0020010630220094B3833186006
:1021800000BFFF20064B186000BF012082F82D0021
:1021900000BF002082F82C0000BF00BFADE70000A8
:1021A0002428004070B504460125002C61D094F825
:1021B0002D0028B9002084F82C00204600F060F89B
:1021C000022084F82D002C480068C0F3001000287D
:1021D0004AD100BFCA20284918310860532008603E
:1021E00000BF204601F04EFF0546BDBB22480C3023
:1021F00000682249084020490C3108602169606864
:102200000843A16908431C490C31096808431A496D
:102210000C3108602089E16841EA00401649091D37
:102220000860D4E9090108431349096821F4F85109
:10223000084311490860204601F04CFF05466DB97E
:10224000D4E907100843616908430B490C31096858
:1022500021F06041084308490C31086000BFFF20AD
:1022600005491831086000E0002515B9012084F8FF
:102270002D00284670BD00000C280040BFFF8FFBDA
:1022800010B590B00446382102A8FEF739F81B4972
:102290002068884230D18013029000120F9002A86B
:1022A000FFF746F808B1FEF7AFFB00BF144800681F
:1022B00040F400404FF0B041C1F8900000BF4FF42F
:1022C0008060896D01434FF0B04291651146896D80
:1022D0000140019100BF00BF002211460220FEF71D
:1022E000C3FF0220FEF7ACFF002211462A20FEF7B2
:1022F000BBFF2A20FEF7A4FF10B010BD002800404D
:10230000900000582DE9F04305460C4617464FF063
:10231000000800BF95F82C00012802D10220BDE87A
:10232000F083012085F82C0000BF022085F82D00E5
:102330006E48006800F44076B6F5807F57D07FBBCA
:102340006A480C30006800F0400000B102E0002054
:10235000E07000BF6069B0F1004F03D0206A00B99F
:1023600000E000BF207801F07FFE4FEA004960786E
:1023700001F07AFE49EA0029A07801F075FE49EAE9
:102380000009E07849EA805994F8240001F06CFED5
:1023900049EA0060216A0843616940EA010826E0D1
:1023A000FFE76069B0F1803F0ED06069B0F5000FC3
:1023B00009D04E480C30006800F0400000B102E047
:1023C0000020E07000BF00BF20780004617840EA80
:1023D0000120A1780843E17840EA815094F8241064
:1023E00040EA0160216A0843616940EA010800BFD0
:1023F000CA203E49183108605320086000BFA06A17
:10240000B0F5807F2ED139480C30006820F4885018
:1024100036490C3108600120344950310860B6F566
:10242000807F06D1D4E9060108433049383108607D
:1024300007E02E483430C0F800802C493831A069BC
:1024400008602A49643160680860286B40F0010028
:10245000286326480C30006840F4885023490C312A
:1024600008602DE021480C30006820F408501F4916
:102470000C31086002201D4950310860B6F5807F9C
:1024800006D1D4E90601084318494031086007E045
:1024900016483C30C0F8008014494031A0690860FB
:1024A0001249683160680860286B40F002002863B8
:1024B0000E480C30006840F408500C490C3108609C
:1024C0000B48006840F400300949086000BFFF2055
:1024D00006491831086000BF012085F82D0000BFB3
:1024E000002085F82C0000BF00BF18E70C28004032
:1024F0008008005870B505460C48006820F02000A0
:102500000A490860FEF748FE044607E0FEF744FE6D
:10251000001BB0F57A7F01D9032070BD0348006825
:1025200000F020000028F1D00020F6E70C28004041
:1025300070B505460C4614B1012C0BD104E0802087
:1025400006490968884706E04FF480700349096826
:10255000884700E000BF00BF70BD0000C000002041
:1025600010B50446402002490968884710BD0000A4
:10257000C00000202DE9F04704468A4616461F4653
:10258000B046A079012837D100BF6079012802D177
:102590000220BDE8F0870120607100BF204603F0F3
:1025A0005DFA01F083F85146204603F015FA002148
:1025B000204603F011FA4FF0000909E04146204699
:1025C00003F0C6F908F1010809F101001FFA80F9CA
:1025D000B945F3DB01F07EF8204603F065FAA06808
:1025E00008B1012500E000250120A07100BF0020F6
:1025F000607100BF2846CCE70220CAE72DE9F0470A
:1026000004460D4690469946A07901283AD100BF6C
:102610006079012802D10220BDE8F08701206071B5
:1026200000BF204603F01AFA842D01D0942D02D168
:102630000120207101E00020207101F037F82946C7
:10264000204603F0C9F9002706E018F807102046D5
:1026500003F0C2F9781C87B24F45F6DB01F03AF877
:10266000842D02D0204603F01FFAA06808B101268D
:1026700000E000260120A07100BF0020607100BFB3
:102680003046C9E70220C7E710B5044620200249BA
:102690000968884710BD0000C000002010B504463E
:1026A000102002490968884710BD0000C0000020C2
:1026B00038B505460020009002236A4612212846BC
:1026C000FFF758FF9DF800409DF8010040EA042400
:1026D00002236A4619462846FFF790FF04F00100DE
:1026E00010B1284600F080F9C4F3400010B128462C
:1026F00000F05CF9C4F3800010B1284600F0B8F88F
:10270000C4F3C00010B1284600F064F9C4F300100F
:1027100010B12846FFF7C2FFC4F3401010B128469D
:10272000FFF7B2FFC4F3801010B12846FFF718FF7F
:10273000C4F3C01058B1C4F3002020B101212846D1
:10274000FFF7F6FE03E000212846FFF7F1FEC4F391
:10275000402010B1284600F033F9C4F3803010B1A6
:10276000284600F061F838BDF8B5044614B90125D3
:102770002846F8BD0025A6790EB1032E0DD1002004
:102780006071204600F05AF84FF4805022490968E1
:102790000143214A116000BF00BF56BB0220A07157
:1027A00000BF1E48006820F400404FF0B041C1F85F
:1027B000940000BF1A480068C0EBC000C0F34C4052
:1027C000642110FB01F0009000BF009818B90125AA
:1027D0000120A06006E00098401E009000F0CCFFB1
:1027E0000028F2D100BF00F075FF4FF4006000F048
:1027F00067FF00BF4FF400600A49086000BF35B9A9
:10280000206803F091F8012020710020A0600120D1
:10281000A0712846ADE700009008005894000058C9
:10282000A80000201804005810B504464FF480405A
:1028300001490968884710BDC000002038B504462A
:1028400001204FF0B041496E01434FF0B042516654
:102850001146496E0140009100BF00BF00221146A1
:102860003220FEF701FD3220FEF7EAFC38BD000001
:1028700010B50446042002490968884710BD0000CD
:10288000C00000202DE9F04704468A4616461F4640
:10289000B046A07901283BD100BF6079012802D160
:1028A0000220BDE8F0870120607100BF204603F0E0
:1028B000D5F800F0FBFE1E21204603F08DF85146AE
:1028C000204603F089F80021204603F085F84FF0F8
:1028D000000909E04146204603F03AF808F10108F2
:1028E00009F101001FFA80F9B945F3DB00F0F2FEAF
:1028F000204603F0D9F8A06808B1012500E00025C2
:102900000120A07100BF0020607100BF2846C8E709
:102910000220C6E72DE9F04704460D4617469846C3
:10292000B946A07901283FD100BF6079012802D1C2
:102930000220BDE8F0870120607100BF204603F04F
:102940008DF800F0B3FE1D21204603F045F8290A5A
:10295000204603F041F8E9B2204603F03DF800219B
:10296000204603F039F84FF0000A09E049462046B6
:1029700002F0EEFF09F101090AF101001FFA80FAE5
:10298000C245F3DB00F0A6FE204603F08DF8A068F8
:1029900008B1012600E000260120A07100BF002040
:1029A000607100BF3046C4E70220C2E710B504469C
:1029B000022002490968884710BD0000C0000020BD
:1029C00010B504464FF4007001490968884710BDEE
:1029D000C000002010B50446082002490968884755
:1029E00010BD0000C000002010B5044601200249BF
:1029F0000968884710BD0000C00000202DE9F0479D
:102A00000446894617469846A079012832D100BF6E
:102A10006079012802D10220BDE8F08701206071B1
:102A200000BF204603F01AF800F040FE0E212046B9
:102A300002F0D2FF4946204602F0CEFF002605E014
:102A4000B95D204602F0C8FF701C86B24645F7DB30
:102A500000F040FE204603F027F8A06808B10125E9
:102A600000E000250120A07100BF0020607100BFC0
:102A70002846D1E70220CFE72DE9F04704460D466E
:102A800090469946A079012839D100BF6079012884
:102A900002D10220BDE8F0870120607100BF022052
:102AA000A071204602F0DAFF00F000FE0D21204662
:102AB00002F092FF290A204602F08EFFE9B220467A
:102AC00002F08AFF002706E018F80710204602F0FF
:102AD00083FF781C87B24F45F6DB00F0FBFD2046F4
:102AE00002F0E2FFA06808B1012600E00026012004
:102AF000A07100BF0020607100BF3046CAE702200D
:102B0000C8E770B504462546681EB0F1807F01D342
:102B100001200FE0681E4FF0E02148610F214FF0C7
:102B2000FF3005F03DFD00204FF0E02188610720D7
:102B30000861002070BD704770477047704710B53E
:102B4000044620680069C0F34000D8B12068C0681E
:102B5000C0F34000B0B16FF00200216808610120AD
:102B600020772068806900F0030018B12046FFF745
:102B7000E5FF05E0204600F0BEF8204600F0BCF876
:102B80000020207720680069C0F38000D8B1206859
:102B9000C068C0F38000B0B16FF004002168086124
:102BA000022020772068806900F4407018B1204628
:102BB000FFF7C4FF05E0204600F09DF8204600F036
:102BC0009BF80020207720680069C0F3C000D8B1CE
:102BD0002068C068C0F3C000B0B16FF00800216881
:102BE0000861042020772068C06900F0030018B154
:102BF0002046FFF7A3FF05E0204600F07CF82046C2
:102C000000F07AF80020207720680069C0F30010F7
:102C1000D8B12068C068C0F30010B0B16FF01000E8
:102C200021680861082020772068C06900F440709E
:102C300018B12046FFF782FF05E0204600F05BF860
:102C4000204600F059F8002020772068006900F045
:102C5000010058B12068C06800F0010030B16FF089
:102C6000010021680861204600F048F820680069EA
:102C7000C0F3C01058B12068C068C0F3C01030B1B4
:102C80006FF08000216808612046FFF755FF20683B
:102C90000069C0F3002058B12068C068C0F3C010BC
:102CA00030B16FF48070216808612046FFF743FF60
:102CB00020680069C0F3801058B12068C068C0F374
:102CC000801030B16FF0400021680861204600F0AC
:102CD0001FF820680069C0F3401058B12068C06830
:102CE000C0F3401030B16FF0200021680861204629
:102CF000FFF723FF10BD70477047000000B5024684
:102D00000248824201D103F029FF00BD04010020E6
:102D1000704770B5044600BF94F88400012801D1C3
:102D2000022070BD012084F8840000BF2420C4F874
:102D30008800206805682068006820F0010021688C
:102D4000086045F000554FF000506066206805604F
:102D5000204604F0EBF92020C4F8880000BF0020D2
:102D600084F8840000BF00BFDBE7014600BF91F894
:102D70008400012801D102207047012081F88400DD
:102D800000BF00BF00BF0A6852E8002F42F00200F7
:102D90000B6843E80002002AF5D100BF00BF002005
:102DA00081F8840000BF00BFE6E77047704770B548
:102DB00004460D4600BF94F88400012801D102208A
:102DC00070BD012084F8840000BF2420C4F888006E
:102DD000206806682068006820F00100216808600B
:102DE0002068806820F06060284321688860204661
:102DF00004F09CF9206806602020C4F8880000BF19
:102E0000002084F8840000BF00BFD9E770B50446F5
:102E10000D4600BF94F88400012801D1022070BD46
:102E2000012084F8840000BF2420C4F888002068B2
:102E300006682068006820F00100216808602068AA
:102E4000806820F06040284321688860204604F0B4
:102E50006DF9206806602020C4F8880000BF0020BB
:102E600084F8840000BF00BFD9E777B581B004467D
:102E7000002500BF94F88400012802D1022004B08C
:102E800070BD012084F8840000BF2420C4F88800AD
:102E90002068006820F001002168086020688068D0
:102EA00020F440100299084321688860029820B9F4
:102EB0002046DDE9021204F065F92068006840F060
:102EC000010021680860FEF767F906466FF07E4052
:102ED000334600224FF480010090204605F038F878
:102EE00008B1032502E02020C4F8880000BF0020BC
:102EF00084F8840000BF2846C1E7704770477047D8
:102F00002DE9F04704462068C569206806682068F6
:102F1000876840F60F0005EA0009B9F1000F0FD1EC
:102F200005F0200060B106F0200010B907F08050D5
:102F300030B1606F10B12046616F8847BDE8F087FF
:102F4000B9F1000F7ED0D448384018B9D34830408A
:102F50000028F7D005F0010058B106F4807040B1A8
:102F6000012021680862D4F8900040F00100C4F804
:102F7000900005F0020058B107F0010040B10220B6
:102F800021680862D4F8900040F00400C4F8900072
:102F900005F0040058B107F0010040B10420216899
:102FA0000862D4F8900040F00200C4F8900005F0E8
:102FB000080070B106F0200010B9B748384040B1A1
:102FC000082021680862D4F8900040F00800C4F896
:102FD000900005F4006060B106F0806048B14FF4E5
:102FE000006021680862D4F8900040F02000C4F826
:102FF0009000D4F89000002852D005F0200050B185
:1030000006F0200010B907F0805020B1606F10B1B9
:103010002046616F8847D4F890A02068806800F04F
:103020004000402802D00AF0280070B3204604F087
:10303000E1F92068806800F04000402826D100BFF8
:1030400000BF00E02DE02168083151E8001F21F0A9
:1030500040002168083141E80002002AF1D100BF98
:10306000D4F8800068B18E48D4F880108863D4F812
:103070008000FDF724FD98B1D4F88000816B88476B
:103080000EE02046FFF73BFF0AE003E02046FFF793
:1030900036FF05E02046FFF732FF0020C4F890001D
:1030A0004CE7E06E012865D105F01000002861D0E2
:1030B00006F010000028FAD010202168086220686D
:1030C000806800F04000402865D1D4F88000006896
:1030D00040681FFA80F8B8F1000F5BD0B4F85C00CC
:1030E000404557DDA4F85E80D4F880000068006891
:1030F00000F02000E8BB00BF00BF216851E8001FBE
:1031000021F48070226842E800010029F5D100BF57
:1031100000BF00BF2168083151E8001F21F0010005
:103120002168083141E80002002AF3D100BF00BF46
:1031300000BF2168083151E8001F21F040002168DC
:10314000083141E80002002AF3D100BF2020C4F872
:103150008C000020E06600BF00BF216851E8001F1E
:1031600021F01000226842E800010029F5D100BFDB
:1031700001E004E053E0D4F88000FDF75DFC02209C
:103180002067B4F85C00B4F85E20801A81B2204653
:10319000FFF70BFED2E634F85C0F6188401A1FFA85
:1031A00080F860885C3CC8B3B8F1000F36D000BF2F
:1031B00000BF216851E8001F21F49070226842E8A6
:1031C00000010029F5D100BF00BF00BF2168083110
:1031D00051E8001F304AD24301EA02002168083159
:1031E00041E80002002AF1D100BF2020C4F88C0081
:1031F0000020E066606700BF00BF216851E8001F43
:1032000021F01000226842E800010029F5D100BF3A
:103210000220206741462046FFF7C7FD8EE605F4F1
:10322000801050B107F4800038B14FF4801021684D
:1032300008622046FFF762FE80E605F0800058B184
:1032400006F0800010B907F4000028B1A06F10B19B
:103250002046A16F884771E605F0400030B106F0C6
:10326000400018B1204604F0FBF867E605F40000C2
:1032700030B106F0804018B12046FFF73EFE5DE613
:1032800005F0807030B106F0004018B12046FFF71D
:103290008DFD53E600BF51E601000010200100043F
:1032A0001B73000810B504460CB9012010BDA069BD
:1032B00000B100E000BFD4F8880028B9002084F8ED
:1032C0008400204600F048F82420C4F888002068D4
:1032D000006820F0010021680860204604F0F6FB39
:1032E000012800D1E2E7A06A10B1204603F05DFF9B
:1032F0002068406820F49040216848602068806819
:1033000020F02A00216888602068006840F00100F1
:1033100021680860204603F0C4FFC7E710B50446E3
:103320000C492068884214D14FF400304FF0B0416E
:10333000896D81434FF0B042916500BF0C214FF081
:103340009040FDF7C7FDE06FFDF7FCFB2520FDF782
:1033500055FF10BD0044004010B594B00446142140
:103360000FA8FCF7CDFF382101A8FCF7C9FF2E49B3
:103370002068884256D1022001904FF440200390EB
:1033800001A8FDF7D5FF08B1FDF73EFB4FF4003073
:103390004FF0B041896D01434FF0B0429165114645
:1033A000896D0140009100BF00BF01201146C96C2A
:1033B0000143D1641146C96C0140009100BF00BFB8
:1033C0000C200F90022010900120119003201290E9
:1033D000072013900FA94FF09040FDF70DFE134802
:1033E00013490860142048601021114881600021B1
:1033F000C16080210161002141618161C16101627F
:10340000FDF790FC08B1FDF7FFFA00BF0848E06740
:10341000846200BF002202212520FDF725FF252020
:10342000FDF70EFF14B010BD0044004058000240EC
:103430002802002070B504460D461646D4F88C00CC
:10344000202821D105B10EB9012070BD0020E06611
:103450000E492068884211D02068406800F40000BE
:1034600060B100BF00BF216851E8001F41F08060DB
:10347000226842E800010029F5D100BF3246294602
:10348000204604F0B7FCE0E70220DEE700800040C1
:1034900010B504460A492068884210D109480068DE
:1034A00040B1D4F8900028B9002201210648054B0C
:1034B0001B689847012204492046FFF7BBFF10BD57
:1034C00000440040140000200C0000202DE9F84FBB
:1034D00004460E4617469946D4F8880020284ED157
:1034E00006B117B90120BDE8F88F00205434E0631D
:1034F00021206063FDF750FE824627806780543CA0
:10350000A068B0F5805F04D1206910B90025B046ED
:1035100002E035464FF000081DE0534600228021AE
:103520002046CDF8009004F013FD08B10320DAE73F
:1035300045B9B8F80000C0F308002168886208F1B6
:10354000020803E02878216888626D1CB4F85600F0
:10355000401EA4F85600B4F856000028DDD15346AA
:10356000002240212046CDF8009004F0F1FC08B183
:103570000320B8E72020C4F888000020B3E7022029
:10358000B1E7000070B504460E461546D4F8880031
:1035900020283FD106B10DB9012070BD44F8506F0D
:1035A000A580E580002020642120A063E06A503CD3
:1035B000E0B11948E16FC8621848E16F0863184824
:1035C000E16F48630020E16F8863236803F12802FC
:1035D0002B46216DE06FFDF715FC38B11020C4F8C3
:1035E00090002020C4F888000120D6E74020216800
:1035F000086200BF00BF2168083151E8001F41F098
:1036000080002168083141E80002002AF3D100BFA0
:103610000020C2E70220C0E791730008E7730008AA
:103620003373000810B5044604492068884203D16A
:10363000002003490968884710BD0000004400408D
:1036400010000020704708B54FF0B041896C01436D
:103650004FF0B04291641146896C0140009100BF67
:1036600008BD08B54FF0B041C96C01434FF0B042FE
:10367000D1641146C96C0140009100BF08BD08B576
:103680004FF0B041C96C01434FF0B042D1641146D4
:10369000C96C0140009100BF08BD000002480068ED
:1036A000C0F3002070470000000400580348006881
:1036B00020F4004001490860704700009004005861
:1036C0000349096821F400610143014A1160704710
:1036D000080400580348006840F4004001490860AD
:1036E0007047000090040058024800680007000E70
:1036F00070470000080100584FF0B040806800F0AB
:103700000C007047014603480068084040EA014049
:1037100070470000880000584FF0B040006820F467
:1037200000104FF0B041086070474FF0B0400068A3
:1037300040F480304FF0B041086070474FF0B04027
:103740000068C0F3005070474FF0B0400068C0F30D
:10375000404070474FF0B0400068C0F38020704791
:103760004FF0B041496821F0FE4141EA00614FF05D
:10377000B04251607047000002480068C0F38030DA
:10378000704700009400005802480068C0F34000F1
:10379000704700009000005802480068C0F34000E5
:1037A00070470000900000580448006820F00100B5
:1037B0004FF0B041C1F894007047000094000058E9
:1037C00002480068C0F340007047000094000058B1
:1037D0004FF0B040006840F001004FF0B041086089
:1037E00070474FF0B0400068C0F3C00070474FF022
:1037F000B0400068C0F3400070474FF0B0414968E6
:1038000021F47F4141EA00214FF0B04251607047FE
:103810004FF0B040006820F080704FF0B041086079
:1038200070474FF0B0400068C0F340607047000040
:10383000084909684FF47F2202EA101291434FF4BD
:103840007F2202EA001211434FF0B042C2F8881002
:10385000704700008800005805490968020C1204EE
:10386000914341EA00414FF0B042C2F888107047DE
:10387000880000580549096821EA104182B21143C5
:103880004FF0B042C2F8881070470000880000581E
:1038900010B50420FFF7D7FE0120FFF7D4FE002269
:1038A00002210F20FDF7E0FC0F20FDF7C9FC10BD41
:1038B00000B585B014216846FCF722FD0420FFF70F
:1038C000D0FE0220FFF7CDFE0120FFF7CAFE002246
:1038D00038210848FDF75AFC38200090012001905B
:1038E00000200290039069460248FDF785FB05B071
:1038F00000BD00000004004800B58BB02C216846D4
:10390000FCF7FEFC1748184908601F211648816023
:1039100000210161416181614FF08041C16100215D
:1039200001624FF480714162FEF73CFC08B1FDF783
:103930006BF80D48FEF77AFB08B1FDF765F800203B
:103940000790019005904FF00050069040150A90A6
:10395000002269460448FEF7D5FC08B1FDF754F88B
:103960000BB000BD002800405001002010B5082019
:10397000044908600846FEF7F7FE08B1FDF744F871
:1039800010BD00008801002010B503F05FF802F0C0
:103990002BFF10BD10B51848184908604FF4E130EE
:1039A0004860002115488160C16001610C214161BE
:1039B00000218161C1610162416200200F4988627A
:1039C0000846FFF76FFC08B1FDF71EF800210B4811
:1039D000FFF71CFA08B1FDF717F800210748FFF7B9
:1039E000E6F908B1FDF710F80448FFF792F908B1BD
:1039F000FDF70AF810BD00000044004094010020CB
:103A000000BFFEE700BFFEE72DE9FC4180460D4602
:103A100016461F4600BF2FA301220021104604F0C6
:103A20001FFB00BF00BF2EA3012200211046CDE9DD
:103A3000006704F015FB00BF3248077000203249D0
:103A40000870FF213148FCF75BFC31480580008895
:103A5000FF2805DC2E48028841462C48FCF737FC3D
:103A600070B22C49087000BF2BA301220021032053
:103A7000009504F0F5FA00BF00241BE000BF2348C6
:103A8000005D2AA3002211460090032004F0E8FA0A
:103A900000BFE11704EB11710911A4EB01110F290B
:103AA00007D100BF0DA300221146032004F0D8FA6D
:103AB00000BF641C202CE1DB00BF08A300221146DC
:103AC000032004F0CDFA00BF0021012004F0C8FB60
:103AD000BDE8FC814F6E5278446F6E650A0D0000A0
:103AE0005273736956616C75653D25642064426D3F
:103AF0002C20536E7256616C75653D256464420AD4
:103B00000D0000001D00002018000020A40200206D
:103B10001A0000201C0000207061796C6F61642E17
:103B20002073697A653D2564200A0D0025303258DE
:103B30000000000010B500BF07A3012200211046BD
:103B400004F08EFA00BF022006490870002101200F
:103B500004F086FB10BD00004F6E52784572726F04
:103B6000720A0D001800002010B500BF06A3012244
:103B70000021104604F074FA00BF012006490870C5
:103B8000002104F06DFB10BD4F6E527854696D65D5
:103B90006F75740A0D0000001800002010B500BFFA
:103BA00007A301220021104604F05AFA00BF0320A7
:103BB000064908700021012004F052FB10BD0000EE
:103BC0004F6E5478446F6E650A0D00001800002097
:103BD00010B500BF07A301220021104604F040FAEF
:103BE00000BF0420074908700021012004F038FBC1
:103BF00010BD00004F6E547854696D656F75740A7E
:103C00000D0000001800002010B5044610210548E2
:103C1000FDF7B2FA08210348FDF7AEFA024804F0B6
:103C2000FFFB10BD00040048A404002070B5054649
:103C30008549C86A80478548007805287ED2DFE834
:103C400000F003C2C3B4F20081480078012860D1BB
:103C500080480088002833DD04227FA18048FCF7DB
:103C600061FB00282DD17F4804F02AFC002210219E
:103C70007D48FDF78BFA08217B48FDF77DFA7249F4
:103C8000C86D804700F1C8042046FDF71EF900BF4B
:103C900076A301220021104604F0E2F900BF00BF24
:103CA00075A301220021104604F0DAF900BF77481D
:103CB00077A10968016064482021826A73489047AF
:103CC00072E0042272A16648FCF72CFB80B9002048
:103CD0005F49087000BF70A301220021104604F064
:103CE000BFF900BF5848416B40F6B83088475BE0E9
:103CF00001205749087000BF6CA301220021104623
:103D000004F0AEF900BF5048416B40F6B830884728
:103D10004AE050480088002846DD04225CA1504853
:103D2000FCF700FB00282FD14E4804F0C9FB00220D
:103D300008214D48FDF72AFA102100E081E04A48A9
:103D4000FDF71AFA4049C86D804700F1C8042046C3
:103D5000FDF7BBF800BF5AA301220021104604F072
:103D60007FF900BF00BF59A301220021104604F0D3
:103D700077F900BF454838A1096801603248202121
:103D8000826A424890470FE001203149087000BF25
:103D900046A301220021104604F062F900BF2A4820
:103DA000416B40F6B83088474CE000BF4CA301227D
:103DB0000021104604F054F900BF2348416B40F63F
:103DC000B83088473EE000BF2148007801281BD169
:103DD0001D49C86D8047C8304449096844182046C9
:103DE000FDF773F800BF24A301220021104604F060
:103DF00037F900BF254826A1096801601248202133
:103E0000826A224890470CE000BF23A301220021D0
:103E1000104604F025F900BF0B48416B40F6B8305E
:103E200088470FE0FFE700BF1BA3012200211046D7
:103E300004F016F900BF0448416B40F6B8308847DB
:103E400000E000BF00BF70BD00B2000818000020F5
:103E50001E0000201A000020504F4E4700000000B6
:103E6000A4020020A4040020000400482E2E2E509E
:103E7000494E470A0D0000004D617374657220546D
:103E8000782073746172740A0D000000A30300208F
:103E900050494E4700000000536C6176652052780F
:103EA0002073746172740A0D000000004D61737418
:103EB00065722052782073746172740A0D000000DC
:103EC0002E2E2E504F4E470A0D000000536C617687
:103ED00065202054782073746172740A0D0000000C
:103EE00052782073746172740A0D00002000002063
:103EF00010B504462046FCF792FC10BD10B50446F0
:103F00002046FCF7D1FC10BD10B5FCF7D3FC10BD6A
:103F100010B5FCF7D1FC10BD10B5FCF7FEFC10BDD0
:103F200010B5FCF7FCFC10BDF0B587B004460E469A
:103F3000254903C9CDE905012349083103C9CDE964
:103F4000030121481030D0E900128068CDE9001249
:103F500002900027B6F5007F0DD1002008E005A9EA
:103F600031F81010A14202D35DF8207002E0401C2D
:103F70000328F4D30DE0002008E003A931F8101065
:103F8000A14202D35DF8207002E0401C0328F4D364
:103F900000BF0E48006820F0070038430B49086056
:103FA000FDF7FAF8054607E0FDF7F6F8401B022892
:103FB00002D9032007B0F0BD0448006800F00700F4
:103FC000B842F1D10020F5E7FCB0000800400058ED
:103FD0002DE9F04104460D48C4F3031150F8216067
:103FE000FFF782FBC0F30310094951F82000B6FB2C
:103FF000F0F5FDF78BF980460648B5FBF0F7414632
:104000003846FFF791FFBDE8F0810000B8B1000825
:1040100058B1000840420F007047704703464FF008
:10402000FF30704700207047002070474FF0FF308E
:10403000704710B503460020401E10BD7047704702
:10404000704710B503464FF0FF3010BD10B5034662
:104050000020401E10BD000010B50248FEF724F8F5
:1040600010BD00005001002002460023114603E06D
:104070005B1CA1F10A00C1B20A29F9D2180741EA72
:104080001060704770B5054600261148006800F0C2
:104090004000D0B90E48006840F080000C4908602C
:1040A000FDF77AF8044609E0FDF776F8001BB0F555
:1040B0007A7F03D90326032085F82D000448006881
:1040C00000F0400008B9032EEED1304670BD00006C
:1040D0000C28004070B5044600251748006820F001
:1040E00080001549086014480C30006800F020007A
:1040F00040B92046FEF7FEF9E0B1032084F82D0018
:10410000032517E00C480C30006820F020000A4915
:104110000C3108602046FEF7EDF918B1032084F851
:104120002D00032504480C30006840F020000249AF
:104130000C310860284670BD0C2800400146012063
:104140007047F0B50646DDE905450BB9082000E0EB
:10415000002000EBC2001830012D01D1022700E041
:104160000027274400EBC700F0BD000001460020F7
:104170000B2922D2DFE801F0060C12181B1D1F21AB
:10418000090F150041F6846017E042F6B10014E013
:1041900043F6095011E045F261100EE047F6122097
:1041A0000BE04AF2C32008E04FF2244005E0044847
:1041B00003E0044801E0044800BF00BF704700006E
:1041C00048E8010090D0030020A107002DE9F04F3E
:1041D000044617461D46DDE909C807F104094FF0FA
:1041E000000A052901D0062902D10C2D00DA0C2580
:1041F0001CB90B2905D00C2903D0012C03D10C29A3
:1042000001D14FF0010A0B9808B1102000E0002006
:1042100000EBC8004FF0040B0BFB1100BCF1000FCA
:1042200002D04FF0000B01E04FF0140B00EB0B033A
:10423000062901D88A0007E00833BAF1010F02D13C
:10424000881E820000E08A00002B00DA0023981804
:10425000401E90FBF2F000FB095000F10C0606290D
:1042600000D8B61CB000401CA1F1020B4FF0010EAB
:104270000EFA0BFE00FB0EF0BDE8F08F10B501F05A
:104280001FFD042804D0052804D0072806D103E028
:10429000022010BD0120FCE70320FAE70020F8E728
:1042A00010B501F076FDC01C10BD000038B5044605
:1042B0002148046000202149487048608860886572
:1042C0001F4801F0CBFD00211C48417300201B4911
:1042D000087302F038F80021084601F057FE042266
:1042E0000021012002F07CF900231A464FF6FF71ED
:1042F000084601F08FFE01F05BFA00BF0020114B71
:104300000246411E0090104803F0C6FF00BF00BFE8
:1043100000200E4B0246411E00900D4803F0BCFFEA
:1043200000BF00BF084804F0CBF800BF00BF08483A
:1043300004F0C6F800BF38BDB0000020880F002090
:1043400081470008C1470008E40F00209547000896
:10435000FC0F00207CB5002001900090C548B0F80B
:10436000540020286FD00CDC04286DD004DC012818
:1043700012D0022869D129E0082867D01028F9D185
:1043800032E140287ED080287DD0B0F5807F7BD080
:10439000B0F5007FEED1A2E000BFB74804F090F87E
:1043A00000BF002002F0A6F8FFF73EFE012801D171
:1043B000FFF733FEB148006838B1B04800680068C4
:1043C00018B1AE4909680868804750E100BFAC48A1
:1043D00004F076F800BFA748407890B9002002F0BA
:1043E00089F8002140F6021002F0DAF940F6441094
:1043F00001F09CFD40F00204214640F6441002F01A
:10440000CFF9FF2201A99F4801F0ACFC9948243064
:1044100001F05CFC99480068B8B39848006880686F
:1044200098B3944890F82400012810D1914890F94D
:10443000313090F93020914800689DF8041084686C
:104440009048A04729E0D8E081E00FE1BDE089492C
:10445000C86B694601F0D0FB0098002802DD4FF4DC
:104460007A7001E04FF47A70009901EB60004FF42C
:104470007A7190FBF1F044B27E4890F929207F4890
:10448000006803E0D8E00AE019E007E023469DF861
:10449000041085687B48A84700BF00BFE7E0002004
:1044A00002F028F87548006840B1744800688069D7
:1044B00020B172480068816900208847D7E0002059
:1044C00002F018F86D48006840B16C4800688069D7
:1044D00020B16A480068816901208847C7E000BFB1
:1044E00069A301220021022003F0BAFD00BF01F000
:1044F000E7FB042813D100BF5F4803F0E1FF00BFD2
:10450000002001F0F7FF5D480068F8B15B480068E3
:104510004068D8B1594909684868804716E001F0F9
:10452000CFFB052812D100BF554803F0C9FF00BFDB
:10453000002001F0DFFF5148006838B14F480068A3
:10454000C06818B14D490968C86880478FE000BF4E
:1045500052A301220021022003F082FD00BF454842
:10456000806D88B34348806DC0F307414E48426C6C
:1045700040F6031090473F48B0F85800C0F30721B9
:104580004948426C40F6041090473A4890F8581059
:104590004548426C40F6051090474348816C40F610
:1045A0000210884740F001043F482146426C40F623
:1045B0000210904700202F49886500231A4640F2D8
:1045C0006221084601F026FD51E000BF37A3012219
:1045D0000021022003F044FD00BFFFF723FD012866
:1045E00001D1FFF72BFD42E000BF33A301220021E0
:1045F000022003F035FD00BF39E000BF204803F082
:104600005FFF00BF1B48407810B9002001F072FF27
:104610001A48006878B119480068C06858B117494D
:104620000968C868804700BF26A301220021022034
:1046300003F016FD00BF1AE000BF25A301220021F0
:10464000022003F00DFD00BF0A48407810B9002099
:1046500001F050FF0948006838B108480068006957
:1046600018B1064909680869804700E000BF00BF2B
:104670007CBD0000880F0020E40F0020B000002067
:10468000FC0F0020880E00204952515F52585F54A1
:10469000585F54494D454F55540D0A00505245201E
:1046A0004F4B0D0A0000000000B2000853594E4362
:1046B000204F4B0D0A000000484452204F4B0D0A7A
:1046C00000000000484452204B4F0D0A000000003B
:1046D0004952515F4352435F4552524F520D0A00B7
:1046E0002DE9F04F8BB007460C4615461E464FF09D
:1046F00001084FF000094FF0000A01F069F80020AE
:1047000000F00EFA384600F0E7F90120002106918A
:104710000791CDE9081002910391049103200B4603
:104720004FF41672CDE9004005912146002000F0BB
:1047300061FA002000F07CF8FFF7B2FD8346FCF739
:10474000C4FB03F0C9FD824608E0002000F06BF8CE
:104750008146A94502DD4FF0000804E0504603F011
:10476000C7FDB042F1D300BF01F032F840460BB0B4
:10477000BDE8F08F024601207047014601207047D6
:1047800010B504460248A0F85440FFF7E3FD10BD01
:10479000880F002010B5044600F002F810BD00009C
:1047A00010B50648006838B104480068C06818B100
:1047B00002490968C868804710BD0000B0000020A9
:1047C00010B5044600F002F810BD000010B5064810
:1047D000006838B104480068406818B102490968A7
:1047E0004868804710BD0000B000002010B50024CC
:1047F00000231A461946184601F00CFC01F0CBFACA
:104800000446204610BD10B50446204601F08EFB3C
:1048100010BD70B504460D46164632462946204660
:1048200001F092FB70BD10B5044601F0E8FA10BD2E
:1048300010B50446FFF7F6FB012802D1FFF7F6FB9F
:1048400006E000231A4640F26221084601F0E2FB2E
:1048500054B100BF2146104803F0C6FD00BF00BFA1
:104860000D4803F0DDFD00BF00200C49886591F87C
:104870005600002101F059FE08484078012804D173
:104880006FF07F4001F0C0FD04E0044989688801B1
:1048900001F0BAFD10BD0000FC0F0020880F0020C1
:1048A00010B50446FFF7BEFB012802D1FFF7BEFB9F
:1048B00006E000231A4640F26221084601F0AAFBF6
:1048C00054B100BF2146104803F08EFD00BF00BF69
:1048D0000D4803F0A5FD00BF00200C49886591F844
:1048E0005600002101F021FE08484078012804D13B
:1048F0006FF07F4001F09EFD04E004498968880163
:1049000001F098FD10BD0000FC0F0020880F002072
:10491000F8B506460C4600231A4640F20121084627
:1049200001F078FB634991F85600012101F0FDFD8B
:1049300060480078012810D15E4890F851000628A0
:104940000BD140F6890001F0F1FA20F00405294668
:1049500040F6890001F024FF0AE040F6890001F0EA
:10496000E5FA40F00405294640F6890001F018FFF9
:1049700050480078052870D2DFE800F00F030E3DA4
:104980004B004C48C4770E3001F03EFC002221461B
:10499000304601F0EFFA7DE000BFFFF743FB01284E
:1049A0001ED16A4621463046FFF74BFB68B99DF899
:1049B0000010404881750E3001F026FC00229DF861
:1049C0000010304601F0D6FA09E000BF3AA30122F8
:1049D0000021022003F044FB00BF0320F8BD09E0E2
:1049E000344884750E3001F00FFC00222146304619
:1049F00001F0C0FA4EE002202E4988730846847602
:104A00000E3001F001FC00222146304601F0B2FADE
:104A100040E0224631462E4805F024F80220254980
:104A20008873601CC1B2234881760E3001F0ECFB24
:104A30000021F12000F050FF0021F02000F04CFF99
:104A40001C48806C642809D17021F32000F044FFD9
:104A50001D21F22000F040FF08E01AE0E121F320E0
:104A600000F03AFF0421F22000F036FF022000EBB4
:104A7000C405290AF42000F02FFFE9B2F52000F068
:104A80002BFF601CC1B26FF07F42114801F072FA37
:104A900000E000BF00BF00BF064841680D4803F0BA
:104AA000A3FC00BF00BF0B4803F0BAFC00BF00200E
:104AB00094E70000880F0020526164696F53656EAF
:104AC00064204F76657273697A650D0A00000000F4
:104AD000880E0020E40F002010B50446204601F0A7
:104AE00043FC10BD70B505460C46012D07D10A48A0
:104AF00004700A48C4770E3001F086FB0AE00748CC
:104B0000407D012806D104480470044884750E30A5
:104B100001F07AFB70BD0000AC000020880F00207F
:104B200010B50446214804702046FFF789FA062C88
:104B300004D2DFE804F00B1204232A3100BF032063
:104B400001F0E2FB0021194841732CE0002001F044
:104B5000DBFB00211548417325E0012001F0D4FB67
:104B60001248407B1149097B884206D00F48017BDF
:104B700041730146487B00F01BF814E0022001F06D
:104B8000C3FB0021094841730DE0022001F0BCFB8A
:104B900000210648417306E0002001F0B5FB00212A
:104BA0000248417300BF00BF10BD0000880F002005
:104BB00010B504460E48047344730120FFF7B0FF9C
:104BC000012C0AD134214FF4E86001F0E9FD4421C1
:104BD00040F2417001F0E4FD09E014214FF4E86077
:104BE00001F0DEFD242140F2417001F0D9FD10BD3D
:104BF000880F00202DE9F04F85B082460E461446FE
:104C00009B46DDE910890F9FC54917984870FFF74B
:104C100003FA1798012801D14FF00008B9F1010FEC
:104C200003D1C0491298087002E0FF20BD49087006
:104C3000BAF1000F7ED0BAF1010F7CD0BAF1050FA6
:104C40007AD1012001F06AFC0020B54981F83800D2
:104C50000846C463092180F844104FF44871016488
:104C6000304601F015F80146AD4880F845100020A7
:104C7000AB4988734FF6FF7000EAC701A84801826C
:104C8000002181741021C174002101754175A5486E
:104C90000178A34881750121C175002101760520A5
:104CA000FFF73EFF9E48383001F0F8F99C480E307F
:104CB00001F0AAFA9CA103C9CDE9030103A801F000
:104CC0004AFC40F2FF1001F021FD40F6B800FFF76A
:104CD0009AFD054625F01005294640F6B80000F07B
:104CE000FBFD042140F6B90000F0F6FD40F69B0004
:104CF000FFF789FD054625F01C0545F0080140F643
:104D00009B0000F0E9FD40F2D160FFF77CFD054615
:104D100025F0180545F0180140F2D16000F0DCFDE7
:104D200040F2AC60FFF76FFD054625F0700545F0D9
:104D3000500102E00FE066E0EDE040F2AC6000F010
:104D4000CBFD4FEAC8004FF47A714843B0FBF4F052
:104D500073498860E0E0002001F0E0FB002070492A
:104D600081F838000846C4630B2180F844103046AF
:104D700000F08EFF01466A4880F84510002068491F
:104D800088734FF6FF7000EAC7016548018204216D
:104D900081741821C1740021017589F001014175E8
:104DA000604801785E4881751398012803D1F2218B
:104DB0005B48C17502E001215948C175012158487D
:104DC000017600F005FD0020FFF7AAFE54483830B8
:104DD00001F064F952480E3001F016FA54A103C9EB
:104DE000CDE9010101A801F0B6FB40F2FF1001F08E
:104DF0008DFC4FEAC8004FF47A714843B0FBF4F0E1
:104E00004749886088E0002001F088FB0120444980
:104E100081F83800084680F850404748815D404896
:104E200080F8511080F852B01EB90B2C05D00C2C14
:104E300003D0012E06D10C2C04D10121384880F872
:104E4000531003E00021364880F853100120344904
:104E50008873084690F85000052804D0084690F85A
:104E60005000062808D10C2F03DA0C212C4881832E
:104E700004E02B48878301E029488783284880F88D
:104E80001E90284801782648C177139980F8201091
:104E9000169980F8211000F09BFC0120FFF740FEDE
:104EA0001F48383001F0FAF81D480E3001F0ACF917
:104EB00008F0FF0001F0D3F840F6A30001F036F847
:104EC00000F001000146009040F6A30001F068FCEC
:104ED000134890F8210001280CD140F2367001F0FF
:104EE00025F820F004000146009040F2367001F0F1
:104EF00057FC0BE040F2367001F018F840F0040067
:104F00000146009040F2367001F04AFC4FF6FF7007
:104F10000349886000E000BF00BF05B0BDE8F08F26
:104F2000880F0020AC000020B22700000000000025
:104F3000C194C100000000008CB2000870B50446A6
:104F40000D46022000FB04500949886500231A46DB
:104F50004FF6FF71084601F05DF8054991F85600DB
:104F6000002101F0E2FA2946204601F07FFA70BDE7
:104F7000880F00202DE9F04786B080460C46154684
:104F80001E464FF00009002004900590FFF744F8FA
:104F900005B100260DB1012000E00020A4494870B1
:104FA000B8F1000F03D0B8F1010F78D1A9E0A068E3
:104FB00008B1E06820B94FF0FF3006B0BDE8F087D7
:104FC000A07F082802DD4FF0FF30F6E7A27F04A89B
:104FD000216903F02BF9216809B1012100E00021CA
:104FE000084601F09BFA0020914981F83800241D01
:104FF0008F486168C163217F80F84410206800F009
:1050000047FE01468A4880F8451000208849887389
:105010004FF6FF71A06801EAC00185480182E17E78
:105020008174A07EC006010E8148C174617F017544
:10503000A07F241F18B9217D7D4881750AE094F86E
:105040002200022803D1FF217948817502E0FF2167
:105050007748817594F82400022803D094F8220040
:10506000022825D194F82300F1280AD094F82300CF
:10507000F22806D094F82300012802D04FF0FF3028
:105080009BE700208DF80C0002946A4A6A48016888
:1050900001A8FEF7C3FF18B14FF0FF308DE7C3E062
:1050A0000021634801760121C1750021417508E0A6
:1050B000223461785E48C175A178017614F822190E
:1050C000417500F085FB0020FFF72AFD5848383075
:1050D00000F0E4FF56480E3001F096F804A801F005
:1050E0003AFAA08B01F012FB208B00F069FF4FF41D
:1050F0007A707043C000A168B0FBF1F04C49886041
:1051000093E0208E10B94FF0FF3056E73220005D5B
:10511000012801D1277D00E0FF27A16A09B1012103
:1051200000E00021084601F0F9F9F0B200F097FF25
:1051300001203F4981F838002C20015D3C4880F86F
:1051400050102D20015D3A4880F851102E20015D4D
:10515000374880F852102F20005D20B1012807D079
:1051600002281CD109E00021314880F8531017E0D3
:1051700001212F4880F8531012E02C20005D0B28ED
:1051800003D02C20005D0C2804D10121284880F890
:10519000531003E00021264880F8531000E000BFC0
:1051A00000BF012022498873218E2148818332204B
:1051B000015D1F488177C7773420015D1C4880F866
:1051C00020103520015D1A4880F8211000F000FB06
:1051D0000120FFF7A5FC1648383000F05FFF1448A7
:1051E0000E3001F011F8124890F8210001280BD17F
:1051F00040F2367000F09AFE20F0040A514640F268
:10520000367001F0CDFA0AE040F2367000F08EFE02
:1052100040F0040A514640F2367001F0C1FA4FF6F0
:10522000FF700349886000E000BF00BF4846C4E645
:10523000880F0020FC0F0020B00000202DE9FC5F4B
:105240000746884691461D46DDE90FAB0E9E0C9C35
:10525000FEF7E2FE27B1012F4BD0042F7DD19CE059
:105260000020614981F838000846C4630B2180F8AA
:105270004410284600F00CFD01465B4880F84510BC
:10528000C0F840900020584988734FF6FF7000EA3C
:10529000C60155480182042181741821C17400217E
:1052A00001758AF001014175BBF1010F02D1F221B4
:1052B000C17502E001214C48C17501214A480176BF
:1052C00000F086FA0020FFF72BFC4748383000F04A
:1052D000E5FE45480E3000F097FF44A103C9CDE933
:1052E0000001684601F037F940F2FF1001F00EFAB4
:1052F00064E001203C4981F83800084680F85040BD
:105300003C48415D384880F851100D9980F85210A2
:105310001DB90B2C05D00C2C03D0012D06D10C2C63
:1053200004D10121304880F8531003E000212E48B9
:1053300080F8531001202C498873084690F85000DB
:10534000052804D0084690F85000062809D10C2EF4
:1053500004DA0C212448818305E02EE0224886836C
:1053600001E021488683204880F81EA02248017869
:105370001D48C17780F820B0139980F8211000F003
:1053800027FA0120FFF7CCFB1748383000F086FEE3
:1053900015480E3000F038FF10E00420FFF7C0FB86
:1053A0000220114981F8380008468464162180F8EB
:1053B0004C10383000F072FE00E000BF00BF4046E5
:1053C00001F002F8084981F856000E2140F61F103E
:1053D00001F0E6F9044991F85600FEF730FE024963
:1053E00014984860BDE8FC9F880F0020C194C1005C
:1053F000000000008CB20008AC0000202DE9F04154
:1054000006460C4615464FF47A7005FB00F7304609
:1054100000F0AAFF204600F0D7FF80460E2140F69C
:105420001F1001F0BDF90121404601F07EF801F0A6
:10543000C9F800BF3946054802F0D6FF00BF00BFDB
:10544000024802F0EDFF00BFBDE8F081E40F00204C
:105450002DE9F04385B006460C46174698460020D5
:1054600003900490FEF7D8FD002E70D0012E6FD06F
:10547000022E6ED0032E6DD1A07C082803DD301FD4
:1054800005B0BDE8F083A27C03A8A16802F0CEFEBF
:10549000206810B94FF0FF30F2E742F21071206837
:1054A00088420CD802250320BE49887381F8380051
:1054B000BC482168C163E17C80F844100FE00025FE
:1054C0000020B849887381F83800B6482168C16364
:1054D000E17C80F8441020688108B24801644FF6EE
:1054E000FF71606801EAC001AE4801820421817445
:1054F000A07CC006010EAB48C17400210175A07DDF
:10550000022802D0207D022825D1607DF12808D014
:10551000607DF22805D0607D012802D04FF0FF3079
:10552000AEE7009401208DF808009F4A9F4801686B
:105530006846FEF773FD10B14FF0FF30A0E7002181
:10554000984801760121C175002141750AE020E0EB
:1055500094E0FCE015E1617D9248C175A17D017682
:10556000217D417500F034F92846FFF7D9FA8D48BE
:10557000383000F093FD8B480E3000F045FE03A854
:1055800000F0E9FF208A01F0C1F8A08900F018FDC1
:10559000F8E0206810B94FF0FF3071E7A07C0828D0
:1055A00002DD4FF0FF306BE7A27C03A8A16802F098
:1055B0003DFE00207B4981F838007A482168C163AC
:1055C000E17C80F84410A16901640020754988736A
:1055D0004FF6FF71606801EAC00172480182042140
:1055E0008174A07CC006010E6E48C1740021017553
:1055F000A07D022802D0207D022821D1607DF128E3
:1056000008D0607DF22805D0607D012802D04FF0DF
:10561000FF3035E701208DF808000094624A6348A6
:1056200001686846FEF7FAFC10B14FF0FF3027E73B
:1056300000215C4801760121C1750021417506E019
:10564000617D5848C175A17D0176217D417500F0CD
:10565000BFF80020FFF764FA5248383000F01EFD12
:1056600050480E3000F0D0FD03A800F074FF208AEF
:1056700001F04CF8A08900F0A3FC83E00120494927
:1056800081F838002178474880F85010617880F818
:105690005110A17880F85210E07820B1012807D08D
:1056A00002281AD109E000213E4880F8531015E085
:1056B00001213C4880F8531010E020780B2802D0DC
:1056C00020780C2804D10121364880F8531003E0DB
:1056D0000021344880F8531000E000BF00BF0120D3
:1056E00030498873A1882F488183A1798177E17936
:1056F00080F82010217A80F8211000F069F801204C
:10570000FFF70EFA2748383000F0C8FC25480E3065
:1057100000F07AFD234890F8510006280BD140F69E
:10572000890000F003FC20F00409494640F6890096
:1057300001F036F80AE040F6890000F0F7FB40F08F
:105740000409494640F6890001F02AF81AE0206869
:1057500018B12068B0F57A7F02D94FF0FF308FE69C
:105760000320FFF7DDF902200E4981F838000D48CB
:1057700021688164162180F84C10383000F08EFCCE
:1057800000E000BF00BF384600F01EFE054981F86A
:10579000560091F85600FEF752FC0248C0F804800B
:1057A00000206DE6880F0020E40F0020B0000020EC
:1057B00008B5002000909DF8000020F00400001DB6
:1057C0000090009800F072FE0220FBF77EFB08BDFF
:1057D00010B5002000F08EFE10BD000010B5084985
:1057E00091F85600002100F0A0FE00231A464FF465
:1057F000C071084600F00EFC00F0D6FB10BD0000A2
:10580000880F00202DE9FE4F81460E4615461F46A3
:10581000DDE90EAB4FF000080124B9F1000F03D011
:10582000B9F1010F21D10DE0CDE900AB3946284691
:10583000DDE90C23FEF785FC4FF47A7100FB01F8DB
:105840002C4613E00D988DE8010C3A462946304667
:105850000C9BFEF7BBFC4FF47A7100FB01F8074983
:10586000885DFEF783FC044600E000BF00BF08EB44
:105870000400401EB0FBF4F0BDE8FE8F8CB20008BF
:1058800070B50446204600F09FFD05460E2140F607
:105890001F1000F085FF0121284600F046FE00F0B1
:1058A00091FE70BD10B5094991F85600012100F034
:1058B0003CFE07482D21426C4FF4D760904700F022
:1058C00088FE044800F068FE10BD0000880F00202C
:1058D00000B20008FFFF0F0070B504460D462946D0
:1058E000204600F05DFF70BD70B504460D461646BB
:1058F00032462946204600F05FFF70BD70B5044671
:10590000FEF70AFB01280DD140F6231000F00EFB34
:10591000054625F0060545EA040140F6231000F08F
:105920003FFF00BF70BD00000849096821F0400139
:10593000064A116040F4417111604FF4B851516052
:105940001146096841F0400111607047000001589C
:1059500018B5024600201E4B1B68C3EBC303C3F3FC
:105960004C43642413FB04F3009300BF009B1BB95A
:1059700001200123936008E0009B5B1E0093154B00
:105980009B6803F00203022BF0D100BFFF23114CF0
:1059900023730F4B1B68C3EBC303C3F34C43642453
:1059A00013FB04F3009300BF009B1BB901200123EC
:1059B000936008E0009B5B1E0093064B9B6803F01E
:1059C0000103002BF0D000BF024BDB680B7018BD49
:1059D000A80000200000015818B5024600201D4B09
:1059E0001B68C3EBC303C3F34C43642413FB04F3EE
:1059F000009300BF009B1BB901200123936008E0C6
:105A0000009B5B1E0093144B9B6803F00203022B68
:105A1000F0D100BF104B19730E4B1B68C3EBC303CF
:105A2000C3F34C43642413FB04F3009300BF009BB7
:105A30001BB901200123936008E0009B5B1E0093CB
:105A4000054B9B6803F00103002BF0D000BF024B15
:105A5000DB6818BDA80000200000015838B50446D6
:105A60002079012811D10B48006800EB4000C0F3F9
:105A70004F300090FDF71AFE00BF0098401E0090C6
:105A800000980028F9D1FDF725FE204600F00CF81B
:105A900038BD0000A800002010B50248FCF708FE41
:105AA00010BD00008801002018B502460020124BEE
:105AB0001B6803EB4303C3F34B43642413FB04F35E
:105AC000009300BF00BF0D4B1B68C3F3800100BFF4
:105AD000009B1BB90120022393600AE0009B5B1E20
